:020000040800F2
:10000000E81E0020C10100086F2A0008252600080C
:100010006D2A00080D090008454D00080000000089
:10002000000000000000000000000000DF3F0008AA
:10003000FD09000800000000912A00089946000808
:10004000DB010008DB010008DB010008DB01000820
:10005000DB010008DB010008DB010008DB01000810
:10006000DB010008FF090008DB010008DB010008D4
:1000700011090008DB0100081D090008DB01000868
:100080002909000835090008DB010008DB01000828
:10009000DB010008DB010008DB010008050A00089D
:1000A000DB01000895470008DB010008DB010008C0
:1000B000DB010008DB010008DB010008DB010008B0
:1000C000DB010008DB010008DB010008DB010008A0
:1000D000DB010008DB010008054D0008114D000898
:1000E000DB010008DB010008DB010008DB01000880
:1000F000DB010008DB010008DB010008DB01000870
:10010000DB010008DB010008DB010008DB0100085F
:10011000DB010008DB010008DB010008DB0100084F
:10012000DB01000841090008DB010008DB010008D1
:10013000DB010008DB010008DB010008DB0100082F
:10014000DB010008DB010008DB010008DB0100081F
:10015000DB0100084D090008DB0100081D4D000807
:10016000DB010008DB010008DB010008DB010008FF
:10017000DB010008DB010008DB01000800000000D3
:10018000DB010008DB010008DB010008DB010008DF
:10019000DB010008DB010008DB010008DB010008CF
:1001A000DB010008DB010008DB010008DFF80CD0F0
:1001B00000F01EFB0048004701660008E81E002012
:1001C0000648804706480047FEE7FEE7FEE7FEE7F1
:1001D000FEE7FEE7FEE7FEE7FEE7FEE74147000831
:1001E000AD01000840EA01039B0703D009E008C9FC
:1001F000121F08C0042AFAD203E011F8013B00F8EC
:10020000013B521EF9D27047D2B201E000F8012B37
:10021000491EFBD270470022F6E710B513460A4686
:1002200004461946FFF7F0FF204610BD421C10F8A7
:10023000011B0029FBD1801A704710B5002200E095
:10024000521C835C8C5CA34201D1002BF8D1D8B244
:10025000E1B2401A10BD2DE9FE4F804681EA03004D
:10026000C00F0C46009021F0004123F00045B8EB90
:100270000200A94105D24046214690461C460B4645
:10028000024623F00040104347D0270DC7F30A0071
:10029000C3F30A510290401A019040286BDAC3F36D
:1002A000130040F4801B0098924620B10023D2EB4B
:1002B000030A63EB0B0B01985946C0F1400250460C
:1002C00000F0D8F906460D4650465946019A00F00E
:1002D000F0F910EB08006141002487EA115284EA2A
:1002E000E7731A4340D0009A62B3019A012A4FEA99
:1002F000075215DC001B61EB02014FF0004202EADD
:100300000752CDE90042001C41F5801132462B46D0
:1003100000F0F0F903B0BDE8F08F40462146F9E760
:10032000001B61EB0201001C41F5801300185B41CA
:100330002018A2F5001747EB030140EAD570B61963
:100340006D4111E06D084FEA360645EAC0754FEA87
:100350000752001B61EB0201001C41F580114908A6
:100360004FEA30000019514132462B4603B0BDE838
:10037000F04F00F0B0B90098012240000023D0EB0C
:10038000020263EBE073009821464FEAE074B8EB99
:10039000000061EB0401E9E783F000435BE781F0D3
:1003A000004158E72DE9FE4F81EA030404F00044C0
:1003B00021F0004100944FF0000B23F0004350EA7D
:1003C00001045ED052EA03045BD0C3F30A54C1F3C4
:1003D0000A552C44A4F2F3340194A0FB0254C1F357
:1003E000130141F48011C3F3130343F4801301FBA1
:1003F000024400FB034E840A970A44EA815447EA08
:100400008357A4FB076802958D0A05FB07854FEA11
:10041000932C04FB0C542705029D4FEA065847EA2B
:100420001637B5EB08056EEB070C870E920E47EA00
:10043000811742EA8312A7FB0201B6EB0B0164EBC2
:1004400000042B0D43EA0C335E1844EB1C50DA46D3
:100450005146E7FB0201C5F313044FEA0B3343EAAD
:1004600014534FEA0432019C43EA0603A4F10C043E
:100470000294009CCDE900B400F03CF903B0BDE863
:10048000F08F00200146F9E72DE9F04D81EA0304E1
:1004900004F0004B21F0004514464FF0000A23F011
:1004A000004150EA050220D054EA01021DD0C5F3F4
:1004B0000A570246C5F31303C1F31300C1F30A56EA
:1004C00040F4801543F48013A7EB0608101BD646B2
:1004D00008F2FD3873EB050002D308F1010801E0D2
:1004E00092185B41B8F1000F03DA00200146BDE825
:1004F000F08D00204FF48011064684460EE0171B55
:1005000073EB050705D3121B63EB050306434CEAA7
:10051000010C49084FEA300092185B4150EA01078C
:10052000EDD152EA030012D082EA040083EA050109
:10053000084305D0101BAB4106D20122002306E080
:1005400000224FF0004302E06FF0010253101AEB5B
:1005500006004CEB085110EB0A0041EB0B01BDE823
:10056000F04D00F0B8B80EB5C10F80EAE070084455
:10057000CA07002140F233438DE80E000A460B46BD
:1005800000F0B8F803B000BD0EB540F2334102915F
:100590000021CDE900110A460B4600F0ABF803B08C
:1005A00000BD70B5C1F30A5201F000450024C1F34B
:1005B000130140F2FF3341F480119A4201DA002026
:1005C00070BD40F233439A42A2F2334203DC5242FE
:1005D00000F05FF800E090402C43F1D0404270BD45
:1005E000C1F30A5210B5C1F3130140F2FF3341F4D5
:1005F00080119A4201DA002010BD40F233439A4242
:10060000A2F2334203DC524200F043F810BD9040A6
:1006100010BD2DE9F05F0546002092469B468846B6
:100620000646814640241BE028464146474622466E
:1006300000F02FF853465A46C01A914110D3114684
:100640001846224600F016F82D1A67EB01084F46AF
:1006500022460120002100F00DF817EB00094E4161
:10066000201EA4F10104DFDC484631462A464346F9
:10067000BDE8F09F202A04DB203A00FA02F10020B6
:1006800070479140C2F1200320FA03F319439040D0
:100690007047202A04DB203A21FA02F0002170473B
:1006A00021FA02F3D040C2F12002914008431946DA
:1006B0007047202A06DBCB17203A41FA02F043EAC2
:1006C000E07306E041FA02F3D040C2F1200291400B
:1006D00008431946704710B5141E73F1000408DA78
:1006E000401C41F1000192185B411A4301D120F0F6
:1006F000010010BD2DE9F04D92469B4611B1B1FAB3
:1007000081F202E0B0FA80F220329046FFF7B2FFA9
:1007100004460F4640EA0A0041EA0B0153465A4696
:10072000084313D0114653EA010019D0C8F1400222
:100730005046FFF7AEFF05460E4650465946424624
:10074000FFF798FF084305D0012004E02046394612
:10075000BDE8F08D0020054346EAE0762C433743A0
:100760000A986305E40AA0EB08000022FD0A44EAA7
:1007700047540A3002D500200146E9E70105101967
:100780006941DDE9084500196941BDE8F04DA2E77E
:1007900070B521F0004303430CD0C1F30A55002487
:1007A000D5EB040564EB0403D617AD1AB34102DBA5
:1007B0000020014670BD201841EB025170BD0000C1
:1007C00030B5041E71F1000404DB4FF000444042D8
:1007D00064EB0101141E73F1000405DB1C464FF0AD
:1007E0000043524263EB0403994208BF904230BD7C
:1007F000064C074D06E0E06840F0010394E807006E
:1008000098471034AC42F6D3FFF7D4FC507E000872
:10081000707E00082DE9F04D00231A461B1A8A410C
:1008200003DB00200146BDE8F08DC1F30A52C1F39D
:10083000130141F480154FF0000BD10702D10018CD
:100840006D41521E0027044640F2FF11384601EB6D
:10085000620A3E468046024600204FF48011FFF7B0
:1008600018FFC2197141BB1846EB0100B4EB030C31
:1008700075EB000C04D3E41A65EB000517460E4631
:10088000241908F101006D4180463428E3DDF9198F
:1008900046EB0600091BA84103D24FF0FF32134676
:1008A00001E0002213461BEB070046EB0A51BDE8AE
:1008B000F04DFFF710BF70B58C1810F8015B15F004
:1008C000070301D110F8013B2A1106D110F8012BC2
:1008D00003E010F8016B01F8016B5B1EF9D12B07E7
:1008E00005D40023521E0DD401F8013BFAE710F89D
:1008F000013BCB1A921C03E013F8015B01F8015B8A
:10090000521EF9D5A142D8D3002070BDFEE70000E9
:10091000014800F049BA000048080020014800F0F2
:1009200043BA0000A8080020014800F03DBA0000CA
:1009300088070020014800F037BA0000E8070020CF
:10094000014800F031BA000008090020014800F019
:100950002BBA00006809002001681823CAB2103AB7
:10096000B2FBF3F2054B6FF30901032A9B5CC365ED
:1009700000D9091D8165084670470000BC78000851
:1009800010B5014600208B698A6A4FF0C07453B1DC
:10099000B3F5005F15D072B1012A0CD0022A0AD03B
:1009A000032A09D104E01AB1012A06D0022A03D190
:1009B000C96AC90100D5012010BDC96AA142FAD097
:1009C00010BD002AF7D0012AF2D0022AF3D0032A60
:1009D000F3D010BD30B50468256825F48025256066
:1009E000046863608368402B036803D099600068E3
:1009F000C26030BD9A600068C16030BD7047082099
:100A000000F00ABC10B5202000F006FCBDE8104044
:100A10004FF4807000F000BC002229B1012922D0DF
:100A2000022923D04FF440720B2800D9001D114930
:100A30000B6823F440730B600B6813430B600A6868
:100A400022F0F8020A600A68F82393FAA3F3B3FAD3
:100A500083F3984040F0020002430A60086840F4C3
:100A60008030086070474FF48072DDE74FF4007209
:100A7000DAE70000103C02401348016889050FD5F1
:100A8000016821F400710160016841F400610160B6
:100A9000016821F400610160016841F400710160A6
:100AA000016849050FD5016821F480610160016882
:100AB00041F480510160016821F4805101600168B6
:100AC00041F4806101607047003C02400E4A1368A7
:100AD00023F44073136003290DD0012911680FD04E
:100AE00041F40041116011684FF4803343EA002063
:100AF000014311607047116848F204031943F1E79C
:100B000041F00401EEE70000103C0240064A136881
:100B100023F44073136013681360136843F00103F8
:100B20001360017070470000103C0240084910B586
:100B30000C6824F440740C600C6844F440740C603D
:100B40000C6844F001040C600260436010BD0000BA
:100B5000103C0240074A136823F440731360136883
:100B600043F480731360136843F001031360018042
:100B700070470000103C0240074A136823F440739A
:100B80001360136843F400731360136843F00103A8
:100B90001360016070470000103C02401C49086867
:100BA000C2061C4805D5C26942F01002C26110227B
:100BB0000A600A68920605D5C26942F00802C2615D
:100BC00020220A600A68520605D5C26942F0040272
:100BD000C26140220A600A68120605D5C26942F065
:100BE0000202C26180220A600A68D20506D5C26983
:100BF00042F00102C2614FF480720A600A689207F3
:100C000005D5C26942F02002C26102200860704727
:100C10000C3C0240A005002070B51149044600209C
:100C2000C86100F0FDFB05460E4E09E0601C07D0D0
:100C300024B100F0F5FB401BA04201D9032070BD98
:100C40003068C003F2D43068C00701D001203060A2
:100C5000306810F4F970F2D0FFF7A0FF012070BDEA
:100C6000A00500200C3C024070B504790023012C43
:100C700009D001240471022545710568AE6846F06B
:100C80000106AE6006E0022070BD066851F82350F0
:100C900035605B1C9342F8D34471002101710068F8
:100CA000006870BD10B5040002D0607910B106E094
:100CB000012010BD00202071204600F007F802201E
:100CC000607101206071002010BD000008B500684F
:100CD0000649884208D10648016841F48051016004
:100CE000006800F48050009008BD00000030024011
:100CF000303802402DE9F0410446876D00F090FB4A
:100D0000054694F835000026022806D0802060654C
:100D100084F834600120BDE8F0812068016821F08A
:100D2000160101602068416921F080014161206C59
:100D300008B9A06C20B12068016821F008010160A9
:100D40002068016821F0010101600BE000F068FB00
:100D5000401B052806D92020606504F8346F032065
:100D60006070D8E720680068C007EFD194F85C1085
:100D70003F208840B86004F8346F01206070002084
:100D8000C9E790F83510022903D080214165012080
:100D90007047052180F835100068016821F00101D5
:100DA00001600020704700002DE9F84304464FF031
:100DB0000008CDF8008064484FF41651A56D006816
:100DC000B0FBF1F72E6894F85C00082202FA00F1FB
:100DD000314210D02068016849070CD5016821F024
:100DE0000401016094F85C0002FA00F1A960606DF2
:100DF00040F00100606594F85C105448884030422F
:100E000008D021684969090604D5A860606D40F0E2
:100E1000020060654D4894F85C10C01C8840304268
:100E200008D021680968890704D5A860606D40F082
:100E30000400606594F85C1010208840304218D09F
:100E400021680968090714D5A8602068016849036A
:100E500004D50068000308D5A16C07E00168C90546
:100E600003D4016821F008010160216C09B120461A
:100E7000884794F85C102020884030424FF00106EB
:100E800031D021680968C9062DD5A86094F83500CD
:100E900005282068016806D0490347D5006800038B
:100EA0001DD4616C1CE021F01601016020684169CD
:100EB00021F080014161206C08B9A06C20B120684C
:100EC000016821F00801016094F85C103F2088401F
:100ED000A86084F8348084F83560216D1FE0E16BF0
:100EE00009B120468847606D00282BD0606DC0078F
:100EF00014D0052084F835002068016821F0010134
:100F000001600098401C0090B84203D82068006837
:100F1000C007F6D184F8348084F83560E16C00298C
:100F200010D001B02046BDE8F04308470168C9056C
:100F3000D5D4016821F01001016084F8348084F870
:100F40003560CCE7BDE8F883E800002001008000B0
:100F50002DE9F041044600F063FA05465CB1002635
:100F600084F83460022084F835002068016821F09C
:100F7000010101600DE00120BDE8F08100F050FAB0
:100F8000401B052805D920206065032084F8350022
:100F9000F2E720680068C007F0D121680A6820489D
:100FA0000240D4E901031843D4E903352B43184325
:100FB00063691843A3691843E3691843236A184314
:100FC0001043626A042A03D1D4E90B231A43104365
:100FD000086020684069656A20F0070128460D43D3
:100FE000012704280CD1A06A0543E06A40B12046DD
:100FF000FFF7C6FC20B14020606584F83570BAE781
:10100000206845612046FFF7A7FC94F85C203F214B
:1010100091408160666584F835700020ACE700007F
:101020003F8010F02DE9F0410446866D90F83400C1
:10103000002501280DD0012084F8340094F8357083
:101040000020012F07D084F8340002252846BDE88F
:10105000F0810220FBE7022784F8357060652046A6
:10106000FFF7B8FC94F85C103F208840B06020681F
:10107000016841F0160101602068416941F080017A
:101080004161206C20B12068016841F008010160D5
:101090002068016841F001010160D7E72DE9F047C0
:1010A000044623480E46017E01290AD001218046CC
:1010B00001764CF250394846FFF7AEFD020003D0EE
:1010C00030E00220BDE8F0874FF0FF30306020684C
:1010D000184F012801D0A5681DE0207C6168FFF74A
:1010E000F5FC4846FFF798FD0246386848F20401CF
:1010F0008843386014E0217C2846FFF78DFC484681
:10110000FFF78AFD0200386820F0FA00386001D04D
:10111000356005E06D1CD4E902100844A842EAD805
:10112000FFF7AAFC002188F818101046CAE7000053
:10113000A0050020103C02400348016841F0004136
:101140000160002070470000103C02402DE9F0478C
:101150001B4E05461446307E1F468946012808D09E
:10116000012030764CF250384046FFF755FD18B15B
:1011700014E00220BDE8F0879DB1012D16D0022DAC
:1011800019D022463B464846FFF7D0FC4046FFF7C1
:1011900043FD0C490A6822F001020A600021317601
:1011A000E8E7E1B24846FFF7B1FCEFE7A1B24846F5
:1011B000FFF7D0FCEAE721464846FFF7DDFCE5E70C
:1011C000A0050020103C024006480068002807DA0D
:1011D000044805490C38016004490160002070474B
:1011E00001207047103C024023016745AB89EFCDD9
:1011F000082807D0202808D0B0F5807F08D10548FE
:101200008069004703484838FAE702482438F7E77E
:10121000704700008C030020044910B50A680242A0
:1012200002D00860FFF7E4FF10BD0000143C01404D
:101230002DE9F84FDFF8A091002209F1040A0AF124
:10124000040B4FF00F080BF1040E01260B689640BB
:101250003340B34271D14C68022C01D0122C11D111
:10126000D40800EB84073D6A5407E40E08FA04FC36
:1012700025EA0C05D1F810C00CFA04FC4CEA050C68
:10128000C7F820C007685400032591F804C0A540A2
:101290000CF0030CAF430CFA04FC4CEA070CC0F84A
:1012A00000C04F68012F05D0022F03D0112F01D0AD
:1012B000122F11D18768D1F80CC0AF430CFA04FC8F
:1012C0004CEA070CC0F808C04768B7430E79C6F36C
:1012D000001696403E434660C668AE438D68A54002
:1012E0003543C5604C68E4006FD53C4C256845F437
:1012F00080452560246822F0030504F480440094AE
:10130000374C2E19D6F808789407250F08FA05F4FB
:10131000A743344CA04201D100242EE0324CA0421D
:1013200001D1012429E0314CA04201D1022424E062
:101330002F4CA04202D103241FE046E02D4CA042D6
:1013400001D1042419E02C4CA04201D1052414E061
:101350002A4CA04201D106240FE0294CA04201D121
:1013600007240AE0274CA04201D1082405E0264CBE
:10137000A04201D1092400E00A24AC403C43C6F855
:101380000848D9F800404D464E689C43F60300D506
:101390001C432C60DAF8004055464E689C43B60367
:1013A00000D51C432C60DBF800405D464E689C4332
:1013B000F60200D51C432C60DEF8004075464E68EE
:1013C0009C43B60200D51C432C60521C102AFFF42B
:1013D0003CAFBDE8F88F0000003C014044380240BB
:1013E00000300140000002400004024000080240BA
:1013F000000C02400010024000140240001802409D
:10140000001C0240002002400024024042694A4081
:10141000426170470AB1816170470904FBE700002F
:101420000148006870470000E4000020024801689D
:10143000491C016070470000E40000200B4810B513
:10144000016841F400710160016841F4806101604C
:10145000016841F480710160032000F09BF80020D6
:1014600000F006F800F03EF8002010BD003C0240FD
:1014700010B5014688B00022192000F06BF8192041
:1014800000F05CF813480024016841F40031016069
:10149000006805A900F400300690684600F046F99F
:1014A00000F082F90C494000B0FBF1F10C480B4A06
:1014B000491E026040F2E732C0E90324C0E901148A
:1014C00000F026FD10B1012008B010BD044800F066
:1014D0003BFDF9E74438024040420F000044014020
:1014E000C809002010B5032000F054F8002211466E
:1014F0006FF00B0000F02EF8002211466FF00A008A
:1015000000F028F8002211466FF0090000F022F8E0
:1015100000221146501F00F01DF800221146101F36
:1015200000F018F800221146901E00F013F8002277
:10153000BDE810401146501E00F00CB800F01F022C
:10154000012191404009800000F1E020C0F8001125
:1015500070470000F0B40E4B1B68C3F30223C3F1C5
:101560000704042C00D904241D1D072D01D20023DB
:1015700000E0DB1E012606FA04F56D1E0D409D40BD
:101580009E40761E164045EA0601F0BC01F070BA96
:101590000CED00E0064A00F0070110684FF6FF036B
:1015A000184040EA012003490843106070470000DA
:1015B0000CED00E00000FA052DE9F047DFF85C9142
:1015C00004460E46D9F8000000F00F01F0B2804644
:1015D000B14207D289F80000D9F8000000F00F00EE
:1015E000B04271D120784E4F800705D53868A16888
:1015F00020F0F000084338602078C00756D04849F2
:101600006068083901281AD002281BD0032819D095
:1016100009688907002957DA396821F00301014375
:101620003960FFF7FDFE0546606841F28831012808
:1016300011D002281CD003288A4625D032E0096840
:101640008903E7E709688901E4E7FFF7E9FE411B41
:10165000514501D923E08A463868C0F3810001284A
:10166000F3D123E0FFF7DCFE411B514501D916E021
:101670008A463868C0F381000228F3D116E0FFF7EC
:10168000CFFE411B51450AD83868C0F381000328BA
:10169000F5D10BE0FFF7C4FE411B514502D90320F1
:1016A000BDE8F087386810F00C0FF3D1D9F80010BE
:1016B000484601F00F01B14208D980F80080006867
:1016C00000F00F00B04201D00120E9E72078400788
:1016D00005D53868E16820F4E05008433860207888
:1016E000000706D53868216920F4604040EAC1004F
:1016F000386000F071F83968F02292FAA2F201F035
:10170000F001B2FA82F2D140064A515CC840064963
:1017100008600020FFF7ACFE0020C1E7003C02405B
:1017200008380240C4780008E80000200F22026058
:101730000C4A136803F003034360136803F0F003DB
:101740008360136803F4E053C36012684FF4E053FE
:1017500003EAD20202610448006800F00F0008604A
:101760007047000008380240003C02400148006811
:1017700070470000E800002008480949006809682F
:101780004FF4E05292FAA2F201F4E051B2FA82F27E
:10179000D140044A515CC84070470000E800002076
:1017A00008380240D47800080848094900680968E8
:1017B0004FF4604292FAA2F201F46041B2FA82F26E
:1017C000D140044A515CC84070470000E800002046
:1017D00008380240D478000830B51948006810F085
:1017E0000C01184812D0184C04290ED008290DD12C
:1017F000134A121F1168136801F03F015D0247F69A
:10180000C07304D5B4FBF1F003E0204630BDB0FB5B
:10181000F1F01168194093FAA3F3B3FA83F3D940B6
:10182000484311684FF4403292FAA2F201F4403179
:10183000B2FA82F2D140491C4900B0FBF1F030BD50
:10184000083802400024F40080BA8C012DE9F84FDA
:1018500004460078DFF8F4A2BD4DC00748D0DAF89E
:1018600000105046C1F38101012908D00068C0F37F
:10187000810002280AD1281D0068400206D5286888
:10188000800335D56068002870D031E06068B0F51D
:10189000803F10D0B0F5A02F286810D020F4803001
:1018A0002860286820F4802028606068A0B1FFF7D5
:1018B000B7FD06460CE0286840F48030F4E740F4B9
:1018C00080202860F7E7FFF7ABFD801B642873D802
:1018D00028688003F7D50BE0FFF7A2FD064604E079
:1018E000FFF79EFD801B6428F1D828688003F7D499
:1018F0002078DFF8608280074FF0010B4FF000097D
:1019000043D5DAF80010504611F00C0F4FF0F807ED
:1019100009D00068C0F3810002280BD18B48001F5A
:101920000068400206D42868800713D5E0680128C3
:101930001CD10FE0E068D0B1C8F800B0FFF770FD2F
:10194000064604E0FFF76CFD801B0228BFD828681C
:101950008007F7D5286897FAA7F22169B2FA82F2D0
:1019600020F0F8009140084328600EE0EBE0C8F852
:101970000090FFF755FD064604E0FFF751FD801B80
:10198000022819D828688007F7D42078000722D5C4
:101990006E4F714861696C3779B1C0F800B0FFF7DC
:1019A0003FFD064604E0FFF73BFD801B022803D8FD
:1019B00038688007F7D50EE079E0C0F80090FFF7AF
:1019C0002FFD064604E0FFF72BFD801B02286ED892
:1019D00038688007F7D42078400750D55B48383006
:1019E000016841F08051016000685C4F00F0805058
:1019F0000090386840F480703860FFF711FD0646AB
:101A000004E0FFF70DFD801B022850D83868C005A0
:101A1000F7D54E4FA068683701280FD005283868E1
:101A200010D020F001003860386820F004003860E1
:101A3000A068B0B1FFF7F4FC06460EE0386840F04D
:101A40000100F4E740F004003860F7E7FFF7E8FC36
:101A5000811B41F2883081426DD838688007F5D506
:101A60000DE0FFF7DDFC064606E0FFF7D9FC811B21
:101A700041F2883081425ED838688007F5D4A06989
:101A8000F0B3DAF80010C1F3810102295BD002281B
:101A9000484605D0C8F86000FFF7C2FC04464DE098
:101AA0004746C8F86000FFF7BBFC064605E042E089
:101AB000FFF7B6FC801B02283DD828688001F7D4C8
:101AC000D4E90701084347F6C07292FAA2F2616AAC
:101AD000B2FA82F29140A26A4FF0FF3303EB520256
:101AE0004FF4403393FAA3F3B3FA83F39A401143CC
:101AF0004FF0706292FAA2F20843B2FA82F200E06A
:101B00001FE0E16A914008431049091F0860C7F8C7
:101B100060B0FFF785FC044604E0FFF781FC001B82
:101B2000022808D828688001F7D50AE0FFF778FC7A
:101B3000001B022802D90320BDE8F88F2868800125
:101B4000F4D40020F8E70120F6E70000083802404E
:101B50000038024000004742800E474200700040BB
:101B600070B5040005D00025A56294F8510010B1AD
:101B700006E0012070BD84F85050204600F030F897
:101B8000022084F851002068016821F040010160C2
:101B9000D4E901010843D4E9031211430843616900
:101BA0000843218B01F400710843E1690843216A6D
:101BB0000843A16A084321680860A069042101EA7A
:101BC0001040616A0843216848602068C16921F4B7
:101BD0000061C1616565012084F85100002070BD7D
:101BE00070B50068204E00222049022303240525F9
:101BF00086B0B0420DD1086840F480500860086893
:101C0000694600F480500590E020CDE900031848B3
:101C100010E0184EB04214D1086840F4005008603B
:101C20000868694600F4005005904FF4E040CDE9A3
:101C30000003114802AE86E83400FFF7F9FA06B057
:101C400070BD0E4EB042FAD1086840F480100860B2
:101C50000868694600F4801005904FF46070CDE983
:101C600000030748E6E70000003001404438024026
:101C700000000240003401400010024000500140CA
:101C8000001402402DE9F84F044690F85000012757
:101C9000DDF828809B4616460D464FF000090128C6
:101CA0000ED0012084F85000FFF7BAFB824694F86A
:101CB0005100616801280CD0B1F5827F07D102E0A4
:101CC0000220BDE8F88FA16809B9042801D00220DC
:101CD000A2E045B13EB1BBF1000F04D094F8510031
:101CE000012802D004E0012096E0052084F851008C
:101CF00000206065A663A4F83EB0A4F83CB025635C
:101D0000A4F836B0A4F834B0206460642068016898
:101D1000490603D4016841F040010160E068B0F574
:101D2000006F606804D0D0B3E08E012838D063E043
:101D300010B1E08E01282BD1216835F8020BC86064
:101D4000E08E401EE08623E067B1E08E50B120684F
:101D50008168890706D535F8021BC160E08E401EF8
:101D6000E0860027E08F50B120688168C90706D05F
:101D7000C06826F8020BE08F401EE0870127B8F10B
:101D8000FF3F05D0FFF74CFBA0EB0A01414542D2D3
:101D9000E08E0028D8D1E08F0028D5D132E0FFE7CF
:101DA000216815F8010B0873E08E401EE08623E0E1
:101DB00067B1E08E50B120688168890706D515F8B3
:101DC000011B0173E08E401EE0860027E08F50B1BA
:101DD00020688168C90706D0C06806F8010BE08F4B
:101DE000401EE0870127B8F1FF3F05D0FFF718FB41
:101DF000A0EB0A0141450ED2E08E0028D8D1E08F39
:101E00000028D5D14346012202212046CDF800A06A
:101E100002F09AF810B10320814610E05246414684
:101E2000204602F081F820B120204FF001096065C2
:101E300005E0A06818B92068C1688068009001209A
:101E400084F85100002084F85000484639E74FF0EC
:101E5000E0210428086903D020F0040008617047DD
:101E600040F00400FAE70000174810B50168491C6B
:101E700001600068B0F5FA7F01D104F079FEFFF748
:101E8000CFFAB0F57A7F1DD31048016840F2E270B6
:101E9000814217DA0E490968814213DA0D4909684F
:101EA00081420FDA04F0AAFF28B1012803D00228EA
:101EB00001D104F053FDBDE810404FF40071064815
:101EC000FFF7A4BA10BD000044000020100000205D
:101ED00014000020180000200018024010B5401E19
:101EE000B0F1807F01D3012010BD4FF0E02460618C
:101EF0000F21601700F0BCFD0020A06107202061C9
:101F0000002010BD10B5FFF7AFFF10BD7047704740
:101F100010B5040003D094F8390010B107E0012097
:101F200010BD002084F83800204600F00CF8022094
:101F300084F83900211D206802F032FC012084F869
:101F40003900002010BD70470168CA6842F00102E4
:101F5000CA600068016841F001010160002070471B
:101F6000704770B50446006801694FF00005C94329
:101F7000890715D4C168C943890711D4E91E0161D5
:101F800001202076206880698007204602D0FFF774
:101F9000E7FF04E000F098F8204600F096F8257678
:101FA00020680169C943490717D4C168C943490773
:101FB00013D46FF00401016102202076206880694B
:101FC00010F4407F204602D0FFF7CAFF04E000F083
:101FD0007BF8204600F079F8257620680169C9432E
:101FE000090716D4C168C943090712D46FF0080164
:101FF0000161042020762068C0698007204602D055
:10200000FFF7AEFF04E000F05FF8204600F05DF857
:10201000257620680169C943C90617D4C168C94338
:10202000C90613D46FF010010161082020762068E2
:10203000C06910F4407F204602D0FFF791FF04E012
:1020400000F042F8204600F040F82576206801694B
:10205000C943C90708D1C168C943C90704D1891E4A
:102060000161204600F032F820680169C943090681
:1020700009D4C168C943090605D46FF08001016124
:102080002046FFF743FF20680169C943490609D488
:10209000C168C943490605D46FF04001016120467B
:1020A00000F01EF820680169C94389060BD4C16895
:1020B000C943890607D46FF0200101612046BDE8BD
:1020C0007040FFF724BF70BD704770470068034938
:1020D000884201D1FFF7AAB97047000000440140CF
:1020E0007047704770B5026804461068D16853693C
:1020F00010F00F0F51D003F0010501F49076354335
:102100005DD0C20705D0CA0503D5E26B42F00102DB
:10211000E263420705D5DA0703D0E26B42F0020220
:10212000E263820705D5DA0703D0E26B42F00402CE
:10213000E263020705D5DA0703D0E26B42F008023A
:10214000E263E26B002A34D0800604D5880602D50B
:10215000204602F008FC20684069E16BC0F3801063
:1021600001F008010143204624D002F0E5FB20687D
:10217000416949061AD5416921F040014161606B0E
:10218000A0B11B490165606BFEF7FBFD002810D074
:10219000606B016DBDE87040084783060FD58B0664
:1021A0000DD52046BDE8704002F0DDBB2046FFF7AC
:1021B00098FF70BDFFF795FF0020E06370BD030638
:1021C00006D50B0604D52046BDE8704002F068BD78
:1021D0004006F3D54806F1D5D168204621F04001EC
:1021E000D160202184F8391000F01AFA70BD000087
:1021F0006148000870B5040004D094F83900002547
:1022000010B106E0012070BD84F83850204600F07F
:1022100023F8242084F839002068C16821F4005193
:10222000C160204602F0E6FB2068016921F490417C
:1022300001612068416921F02A0141612068C1687B
:1022400041F40051C160E563202084F8390084F82E
:102250003A00002070BD00002DE9F04F0446D0F890
:1022600000C0DFF84C820220924B01210322DFF8EC
:1022700048E240270025460287B04FF007094FF09B
:10228000006BC44554D1D3F800C04CF4003CC3F8F3
:1022900000C01B680DF1040803F4003305936023AC
:1022A000009388E8070269467046FEF7C1FFDFF831
:1022B000108282494046C8F80010C0E901B5C0E963
:1022C0000356D946C8F814504FF4803BC8F818504C
:1022D000C8E9075BB246C8F82450FEF739FE20B1C2
:1022E00040F22F1177A002F02EFD7D4EC4F834800D
:1022F000C8F83840C6E90275C6E904A5B561C6E963
:10230000075B6E4875621830C6E900093046FEF773
:102310001FFE20B140F241116AA002F014FD2663B5
:10232000002202212620B463FFF714F926205CE086
:10233000DFF8B081C4455DD1D3F800C0AA464CF4A3
:10234000802CC3F800C01B680DF1040803F480233F
:1023500005934FF44073009388E80702694670467E
:10236000FEF766FF5549DFF8809160394846C9F8A5
:102370000010C0E901B5C0E90356D846C9F81450A9
:102380004FF4003BC9F81850C9E9075BC9F824505D
:10239000FEF7DEFD20B14FF4B7714AA002F0D3FC86
:1023A000524DC4F834904548C9F838403038AF60D1
:1023B000C5E90008C5E903A6C5F814A0C5F818A02A
:1023C000C5E907AB2846C5F824A0FEF7C1FD20B13A
:1023D0004FF4C0713BA002F0B6FC2563002201213E
:1023E0002720AC63FFF7B6F82720FFF7A7F807B060
:1023F000BDE8F08F3E4B9C45F9D12E4B1B1DD3F809
:1024000000C04CF0200CC3F800C01B680DF104089C
:1024100003F020030593C023009388E807000820F9
:10242000049069463348FEF703FFDFF8D080324955
:1024300040464FF02069C8F80010C0E90195C0E996
:102440000356C8F81450C8F81850C8F81C50C8F8FB
:102450002050B246C8F82450FEF77AFD20B140F271
:10246000AD1118A002F06FFC254EC4F83480C8F8F6
:102470003840C6E90275C6E904A5B5611E48F56194
:10248000356278307562C6E900093046FEF760FDB6
:1024900020B140F2BF110BA002F055FC26630022D0
:1024A00002214720B463FFF755F847209DE700005D
:1024B0000044004040380240000C02408860024066
:1024C000880700202E2E2F5372632F73746D3332C2
:1024D000663478785F68616C5F6D73702E6300009E
:1024E000E80700200048004048080020A808002015
:1024F000001401400008024028640240080900203E
:102500006809002037B5044690F83A0082B01346B7
:1025100020283AD1039AAAB3A3B394F8380001282B
:1025200033D0012084F83800A262A3850025E5633A
:10253000222084F83A00616B1548C863616B154826
:102540000864616B1448C864606B05652168606B42
:10255000091DFEF767FD206801684168009184F855
:102560003850C16841F48071C1602068416941F010
:10257000010141612068416941F040014161002051
:1025800005B030BDFFE70120FAE70220F8E70000C0
:10259000BB480008F74800087148000870477047BA
:1025A000F7B5044690F83900202831D1019969B374
:1025B00062B394F8380001282AD0012084F838004A
:1025C0002162A284E2840025E563212084F8390099
:1025D000236B1048D863236B0F481864236B0F4894
:1025E000D864206B134605652668206B321DFEF704
:1025F00019FD21686FF04000086084F838502068A9
:10260000416941F0800141610020FEBD0120FEBD15
:102610000220FEBD014900082F490008714800084A
:1026200070477047FEE70000214808B5016841F493
:1026300000110160016801F400110091016841F48A
:10264000800101600068002200F4800000900321F6
:102650000C20FEF77FFF0C20FEF770FF0022032105
:102660000E20FEF777FF0E20FEF768FF0022032101
:102670001020FEF76FFF1020FEF760FF00220321FD
:102680001120FEF767FF1120FEF758FF00220321FB
:102690003920FEF75FFF3920FEF750FF00220321AB
:1026A0004520FEF757FFBDE808404520FEF746BF2E
:1026B000303802402DE9F04FB14887B0002401685E
:1026C00041F480710160016801F480710591016835
:1026D00041F020010160016801F0200105910168CD
:1026E00041F080010160016801F0800105910168FD
:1026F00041F004010160016801F0040105910168E5
:1027000041F001010160016801F0010105910168DA
:1027100041F010010160016801F0100105910168AC
:1027200041F002010160016801F0020105910168B8
:1027300041F008010160016801F00801059101689C
:1027400041F04001016000684FF4406800F0400033
:102750000590012241468B48FEF75CFE0022412194
:102760008948FEF757FE002204218848FEF752FEF2
:10277000012212218648FEF74DFE012220218348C6
:10278000FEF748FE012251037F48FEF743FE002278
:102790004FF420617F48FEF73DFE01224FF4C061F7
:1027A0007D48FEF737FE4FF40069002249467A481B
:1027B000FEF730FE002202217848FEF72BFE0122B0
:1027C0004FF478517648FEF725FE01AA0120032533
:1027D000CDF8008082E8310069466A48FEF728FD9E
:1027E000412000900120CDE9010469466648039428
:1027F000FEF71EFD1E20CDE90004694662480294E2
:10280000FEF716FD4FF0200A664F0120CDF800A01C
:10281000CDE9017069465C48FEF70AFD4FF0040BF4
:1028200001AA01200226CDF800B082E851006946D5
:102830005648FEF7FDFC01200096CDE901046946EB
:1028400053480394FEF7F4FCCDE900B469465048C0
:102850000294FEF7EDFCFC20CDE9000469464E48E9
:102860000294FEF7E5FC0820CDE9000769460294D2
:102870004748FEF7DDFC1020009001AA012082E805
:10288000310069464248FEF7D3FC01AA0120CDF889
:1028900000A082E8310069463C48FEF7C9FC3003DD
:1028A000009001AA012082E8510069463648FEF7EF
:1028B000BFFC3002009001AA012082E85100694665
:1028C0003448FEF7B5FC0120CDF80090CDE90104B5
:1028D000694630480394FEF7ABFCB003CDE9000431
:1028E00069462C480294FEF7A3FCCDE900846946B2
:1028F0002D480294FEF79CFCF001CDE90007012071
:10290000029069462448FEF793FC6802009001AAF1
:10291000012082E8310069461F48FEF789FC01AAC0
:102920000120CDF8009082E8310069461A48FEF790
:102930007FFC0120CDE90060CDE9024669461748D9
:10294000FEF776FC4FF47850009001AA112082E83F
:10295000310069461248FEF76BFC00220121092074
:10296000FEF7F8FD0920FEF7E9FD002201211720FE
:10297000FEF7F0FD1720FEF7E1FD07B0BDE8F08F90
:10298000303802400020024000140240000802409B
:102990000000024000100240001C0240000C0240F7
:1029A0000018024000001110000402400E4810B54B
:1029B0000C4901604FF48271416000218160C16067
:1029C0004FF400720161C0E905121822C0E9072125
:1029D000416281620A21C162FFF7C2F8002800D07B
:1029E000FEE710BD00300140C00500200E4810B5C4
:1029F0000C4901604FF48271416000218160C16027
:102A00004FF400720161C0E905121022C0E90721EC
:102A1000416281620A21C162FFF7A2F8002800D05A
:102A2000FEE710BD00340140180600200E4810B526
:102A30000C4901604FF48271416000218160C160E6
:102A40004FF400720161C0E905121022C0E90721AC
:102A5000416281620A21C162FFF782F8002800D03A
:102A6000FEE710BD0050014070060020FEE77047F1
:102A70000907090E002806DA00F00F0000F1E02037
:102A800080F8141D704700F1E02080F800147047B2
:102A90007047000070B51249054610480860124C96
:102AA0001248104921600160012001F099FB0021CA
:102AB0000D2001F0A3FD0B21284601F0DDFD21686A
:102AC0004120022201F83F0F4020487001F0B2FD82
:102AD000BDE87040032001F083BB000044030020E8
:102AE00040000020500400205C000020AC000020CA
:102AF00070B5104905460E480860104C10480E4944
:102B000021600160012001F06BFB00210D2001F02C
:102B100075FD0B21284601F0AFFD2168412001F829
:102B20003F0F40204870BDE87040022201F082BD96
:102B30004403002040000020500400205C000020DE
:102B4000AC000020064905480860074905480860B0
:102B500006490860032001F043BB00004403002045
:102B600040000020500400205C000020AC00002049
:102B7000044B08B1012200E0002202211846FEF7B2
:102B800049BC0000000002402DE9F04FFF4E2DED42
:102B9000048B30468FB0044605460290FC48FD4940
:102BA000FE4F0860FE48FC49396001601220123176
:102BB00001F088FC3868807C01079FEDFA8BDFF814
:102BC000ECB3DFF8EC834FF0E02A74D50122510317
:102BD000F848FEF71FFC0821122001F00FFD01F05C
:102BE0004BFCF549002044460860D8F81000A0F5D9
:102BF000E061E2391AD0A0F5E061E3392FD005F1A8
:102C0000FC04012020606068401C606004F0F6F85D
:102C1000A060DAF81810A820ABEB0101B1FBF0F0CE
:102C2000E0600FB0BDEC048BBDE8F08F38688179AF
:102C3000C2790904007A01EB02210844FDF7A4FCE3
:102C400053EC182BFDF7AEFBFDF7ABFC02466068BA
:102C5000DAA1C0F57A73DE4802F076F820E1386830
:102C60008179C2790904007A01EB02210844FDF759
:102C70008BFC53EC182BFDF795FBFDF792FCD54D23
:102C800002462868C0B1012818D00328C9D1D24E05
:102C9000D2A1B6F80700009036F8053FCC4802F004
:102CA00053F8CB4803F0D0F97088761F68B1401C08
:102CB000A6F80700B5E711E0D0A102E00220D6A1F6
:102CC0002860C34802F040F8EAE0206A401C206215
:102CD0003228A6D94FF0FF302860A2E7810604D53C
:102CE0002021122001F08AFC9BE7400699D5402163
:102CF000122001F083FCA94F10203968103101F037
:102D0000E1FB3868017C41730D2001F077FC0B2159
:102D10009E4801F015FC012001F062FA00210D200F
:102D200001F06CFC052001F05BFA0DA9192001F0FF
:102D3000C9FB9DF83400010605D5C043401CC0F313
:102D40008500404200E08008DFF8E092002823DAA6
:102D5000FDF709FC41EC190B99F80510B44800EB9C
:102D6000C10090ED000B9FEDB31B51EC100B53EC29
:102D7000112BFDF717FB9FEDB11B53EC112BFDF74A
:102D80006AFA9FEDB01B53EC112BFDF764FA41EC8E
:102D9000100B53EC192B14E0804F1A2039681A31AC
:102DA00001F090FB3868807EFDF7EEFB41EC100BE4
:102DB00099F80500A54901EBC00090ED001B53EC0C
:102DC000112B51EC100BFDF746FAFDF7EAFBA04F73
:102DD00088F800003868401C38607868401C7860CB
:102DE00004F00CF8B860DAF81810D146DA46ABEB0C
:102DF00001014FF0A80BB1FBFBF0F860D8F8100010
:102E00004746DFF88881A0F5E061E23909D0A0F5F6
:102E1000E061E33952D0307800F0070001287DD01E
:102E200069E15E4800688179C2790904007A01EBA2
:102E300002210844FDF7A8FB53EC182BFDF7B2FA6A
:102E4000FDF7AFFB0446514803F032F9804A483A97
:102E500050B398F800104046AA297FF42BAF417870
:102E60005529FAD1817898F8030001EB0020116808
:102E7000814202D900215160F96110605168491CFA
:102E8000516097F90030FA691A44FA6192FBF1F245
:102E9000CDE90020029122466EA14D4801F054FF79
:102EA0004B4803F0D1F8BCE61068009097F9003069
:102EB000224672A1464801F047FFF1E7288845F213
:102EC000AA51884202D12A79032A09D08842EAD13C
:102ED00028790228E7D14048B0F8071041B10AE04C
:102EE0003C49012008606EA1394801F02DFFD7E769
:102EF0000121A0F80710B86B401CB86397F90010C7
:102F0000FA6B0A44FA6392FBF0F295F90930CDE9C5
:102F10000031CDE9020235F8053F00E005E06A889E
:102F200065A12B4801F010FFBAE70A21174803F00A
:102F30007BF898F80A104546884225D103F05EFFD9
:102F4000F862D9F81810AAEB0101B1FBFBF403F009
:102F500055FF0346E8790DF12408AE7A6A7A297A9A
:102F600088E84700E8780DF11408AE796A79297984
:102F700088E84700A9786A78287897F90050CDE961
:102F800002020491C208AFE0B5E00000E8010020B1
:102F90004403002040000020500400205C0000207A
:102FA000AC0000200000000080844E4074D40C006F
:102FB0000000002000180240480000207266315FC7
:102FC00025642073656E64206F6B2025640D0A00F4
:102FD000050C0020FC0000203C1500200D7266311D
:102FE0005F746573745F25642073656E64205B2570
:102FF000642F25645D2020200000000020726631CF
:103000005F746573745F2564207365745F73656EA8
:10301000736F7220000000007266315F7465737414
:103020005F256420626567696E0D0A0070000020EC
:1030300000770008000000000000244000000000AD
:1030400000C065C00000000000001040507700087C
:10305000140300207266315F256420726576202596
:1030600064206176673D2564207365713D25642089
:10307000636F756E743D25640D0A00007266315FE2
:10308000256420726576202564207365713D256472
:10309000206372635F6572726F720D0A0000000038
:1030A000207266315F746573742072657620736573
:1030B0007461636B0D0A00007266315F746573742E
:1030C00020726576205B25642F25645D2025642FA2
:1030D0002564202020202020202564202564202015
:1030E00020202020200D0A0027492848CDE900454E
:1030F00001F02AFED4E63078C14349072FD000F012
:10310000070002287FF4D6AD0A21214802F08CFF87
:1031100098F80A108842F5D1D9F81810AAEB0101E5
:10312000B1FBFBF503F06AFE217A0DF1140897F963
:10313000006094F90330A27988E84E00E379627A5E
:10314000A188CDE9000502A880E80E002078B4F837
:103150000120C3080F490D4801F0F6FDA0E6D9F89B
:103160001810AAEB0101B1FBFBF403F047FE034684
:1031700097F9000008A1CDE900400298D0F803209B
:10318000024801F0E1FD8BE670790008050C002093
:10319000E8010020607A00087266312072657620AE
:1031A000746573747266207365713D256420736C59
:1031B0006F743D2564207469636B3D2564207273D0
:1031C00073693D25640D0A00044B4FF4005108B1AA
:1031D000012200E000221846FEF71CB9001402404C
:1031E000044B08B1012200E0002220211846FEF71E
:1031F00011B900000008024070B50C4905460A48A4
:1032000008600C490A4808600B490860407820F0C3
:10321000F804012000F0E4FF284601F05DF82046A4
:10322000BDE8704000F0DCBF4403002040000020F7
:10323000500400205C000020AC00002070B5124952
:10324000054610480860124C124810492160016080
:10325000012000F0C5FF00210D2001F0CFF90B2166
:10326000284601F009FA21684120022201F83F0FA7
:103270004020487001F0DEF9BDE87040032000F006
:10328000AFBF00006803002040000020C004002001
:103290005C000020AC00002070B5104905460E48C7
:1032A0000860104C10480E4921600160012000F0B8
:1032B00097FF00210D2001F0A1F90B21284601F014
:1032C000DBF92168412001F83F0F40204870BDE83C
:1032D0007040022201F0AEB96803002040000020D7
:1032E000C00400205C000020AC0000200649054816
:1032F000086007490548086006490860032000F097
:103300006FBF00006803002040000020C0040020C0
:103310005C000020AC000020044B4FF4006108B1B9
:10332000012200E000221846FEF774B80020024097
:103330002DE9F04FDE4FE04938462DED048B8FB07C
:1033400004460290DB480860DD4DDE48DB49296019
:1033500001601220123101F0B5F82868807C010765
:103360009FEDD99BDFF868A3DA4E4FF0E0293ED5F8
:1033700001221103D848FEF74DF80821122001F070
:103380003DF901F079F87169A1F5E060E23815D0F6
:10339000CC34012020606068401C606003F02EFD8A
:1033A000A060D9F81810A820AAEB0101B1FBF0F039
:1033B000E0600FB0BDEC048BBDE8F08F2868817928
:1033C000C2790904007A01EB02210844FDF7DCF818
:1033D00053EC192BFCF7E6FFFDF7E3F80246B06863
:1033E000BEA1C0F57A73C24801F0AEFCD8E08106F8
:1033F00004D52021122001F001F9DAE74006D8D5E2
:103400004021122001F0FAF82968AB461020103153
:1034100001F058F82868017C41730D2001F0EEF8A6
:103420000B21A34801F08CF8012000F0D9FE002107
:103430000D2001F0E3F8052000F0D2FE0DA91920BF
:1034400001F040F89DF83400010605D5C043401C4A
:10345000C0F38500404200E08008DFF89882002831
:1034600023DAFDF780F841EC180B98F80500A24923
:1034700001EBC00090ED000B9FEDA01B51EC100B79
:1034800053EC112BFCF78EFF9FED9E1B53EC112B81
:10349000FCF7E1FE9FED9D1B53EC112BFCF7DBFECF
:1034A00041EC100B53EC182B15E0DBF800105D46D7
:1034B0001A201A3101F006F82868807EFDF764F8BA
:1034C00041EC100B98F80500924901EBC00090ED1B
:1034D000001B53EC112B51EC100BFCF7BCFEFDF75D
:1034E00060F8734D7070FC352868401C286068686F
:1034F000401C686003F082FCA860D9F81810C84628
:10350000D146AAEB01014FF0A80AB1FBFAF0E8603E
:103510007169FC3DA1F5E060E23805D0387800F033
:10352000070001284AD07CE0DBF800008179C279ED
:103530000904007A01EB02210844FDF725F853EC59
:10354000192BFCF72FFFFDF72CF80446584802F022
:10355000AFFD574AA43238B32878AA287FF44DAF7C
:1035600068785528FAD1A878E97800EB01209168AD
:10357000814202D90021D160F1619060D168491C7B
:10358000D16096F90130F2691A44F26192FBF1F2CE
:10359000CDE90020029122465FA1554801F0D4FBFD
:1035A000534802F051FD04E79068009096F901300D
:1035B000224663A14E4801F0C7FBF1E70A213C48CF
:1035C00002F032FDA97A88422BD103F017FC306358
:1035D000D8F81810A9EB0101B1FBFAF403F00EFCC6
:1035E0000346E8790DF1240BAF7A6A7A297A8BE8E1
:1035F0008700E8780DF1140BAF796A7929798BE8A7
:103600008700A9786A78287896F90150CDE90202F6
:103610000491C20853493648CDE9004501F094FBB6
:10362000BEE73878C14349072DD000F007000228D3
:10363000B9D10A211E4802F0F7FCA97A8842B2D11A
:10364000D8F81810A9EB0101B1FBFAF503F0D6FB8D
:1036500096F9016094F90320A179237A06AF0593C6
:1036600087E84600E379627AA188CDE9000502A8DF
:1036700080E80E002078B4F80120C3083A491C48BD
:1036800001F062FB8CE7D8F81810A9EB0101B1FB3F
:10369000FAF403F0B3FB034696F9010033A1CDE938
:1036A00000400298D0F80320114801F04DFB77E765
:1036B000280200206803002040000020C0040020F1
:1036C0005C000020AC0000200000000080844E4020
:1036D00074D40C0000000020001802407266325FB3
:1036E00025642073656E64206F6B2025640D0A00CD
:1036F000050C00207000002000770008000000008A
:10370000000024400000000000C065C00000000070
:1037100000001040507700087266325F2564207206
:103720006576202564206176673D25642073657188
:103730003D256420636F756E743D25640D0A00009D
:103740007266325F25642072657620256420736579
:10375000713D2564206372635F6572726F720D0A3A
:1037600000000000C0790008E07A0008726632208C
:1037700072657620746573747266207365713D2579
:103780006420736C6F743D2564207469636B3D2500
:103790006420727373693D25640D0A00044B08B1FF
:1037A000012200E0002204211846FDF733BE00008C
:1037B00000080240044B4FF4806108B1012200E090
:1037C00000221846FDF726BE0020024070B50C49C5
:1037D00005460A4808600C490A4808600B49086019
:1037E000407820F0F804012000F0FAFC284600F0B0
:1037F00073FD2046BDE8704000F0F2BC6803002075
:1038000040000020C00400205C000020AC0000202C
:1038100070B51249054610480860124C124810490C
:1038200021600160012000F0DBFC00210D2000F090
:10383000E5FE0B21284600F01FFF216841200222EF
:1038400001F83F0F4020487000F0F4FEBDE87040E2
:10385000032000F0C5BC00008C03002040000020C5
:10386000300500205C000020AC00002070B510493D
:1038700005460E480860104C10480E492160016052
:10388000012000F0ADFC00210D2000F0B7FE0B215F
:10389000284600F0F1FE2168412001F83F0F40204A
:1038A0004870BDE87040022200F0C4BE8C030020C6
:1038B00040000020300500205C000020AC0000200B
:1038C0000649054808600749054808600649086038
:1038D000032000F085BC00008C0300204000002085
:1038E000300500205C000020AC000020044B4FF4A9
:1038F000806108B1012200E000221846FDF78ABD70
:10390000001C02402DE9F04FDE4FE04938462DED16
:10391000048B8FB004460290DB480860DD4DDE4822
:10392000DB49296001601220123100F0CBFD2868CC
:10393000807C01079FEDD99BDFF868A3DA4E4FF03A
:10394000E0293ED50122D102D848FDF763FD0821C8
:10395000122000F053FE00F08FFDB169A1F5E06088
:10396000E23815D09C34012020606068401C606003
:1039700003F044FAA060D9F81810A820AAEB0101BE
:10398000B1FBF0F0E0600FB0BDEC048BBDE8F08F50
:1039900028688179C2790904007A01EB0221084480
:1039A000FCF7F2FD53EC192BFCF7FCFCFCF7F9FDDE
:1039B0000246F068BEA1C0F57A73C24801F0C4F9AE
:1039C000D8E0810604D52021122000F017FEDAE7A6
:1039D0004006D8D54021122000F010FE2968AB46E1
:1039E0001020103100F06EFD2868017C41730D201D
:1039F00000F004FE0B21A34800F0A2FD012000F01E
:103A0000EFFB00210D2000F0F9FD052000F0E8FBA0
:103A10000DA9192000F056FD9DF83400010605D5CA
:103A2000C043401CC0F38500404200E08008DFF83E
:103A30009882002823DAFCF796FD41EC180B98F8E1
:103A40000500A24901EBC00090ED000B9FEDA01B0B
:103A500051EC100B53EC112BFCF7A4FC9FED9E1BBB
:103A600053EC112BFCF7F7FB9FED9D1B53EC112B37
:103A7000FCF7F1FB41EC100B53EC182B15E0DBF8D5
:103A800000105D461A201A3100F01CFD2868807E67
:103A9000FCF77AFD41EC100B98F80500924901EB18
:103AA000C00090ED001B53EC112B51EC100BFCF7F8
:103AB000D2FBFCF776FD734DB070CC352868401C06
:103AC00028606868401C686003F098F9A860D9F81D
:103AD0001810C846D146AAEB01014FF0A80AB1FB65
:103AE000FAF0E860B169CC3DA1F5E060E23805D0BC
:103AF000387800F0070001284AD07CE0DBF80000AD
:103B00008179C2790904007A01EB02210844FCF7AB
:103B10003BFD53EC192BFCF745FCFCF742FD04463A
:103B2000584802F0C5FA574A643238B32878AA28B0
:103B30007FF44DAF68785528FAD1A878E97800EB82
:103B400001201169814202D900215161F1611061A6
:103B50005169491C516196F90230F2691A44F261C7
:103B600092FBF1F2CDE90020029122465FA1554877
:103B700001F0EAF8534802F067FA04E71069009090
:103B800096F90230224663A14E4801F0DDF8F1E7D4
:103B90000A213C4802F048FAA97A88422BD103F066
:103BA0002DF97063D8F81810A9EB0101B1FBFAF4F4
:103BB00003F024F90346E8790DF1240BAF7A6A7A11
:103BC000297A8BE88700E8780DF1140BAF796A79D0
:103BD00029798BE88700A9786A78287896F90250C5
:103BE000CDE902020491C20853493648CDE90045A7
:103BF00001F0AAF8BEE73878C14349072DD000F09C
:103C000007000228B9D10A211E4802F00DFAA97A4C
:103C10008842B2D1D8F81810A9EB0101B1FBFAF52E
:103C200003F0ECF896F9026094F90320A179237A65
:103C300006AF059387E84600E379627AA188CDE96B
:103C4000000502A880E80E002078B4F80120C3081F
:103C50003A491C4801F078F88CE7D8F81810A9EB1D
:103C60000101B1FBFAF403F0C9F8034696F902002A
:103C700033A1CDE900400298D0F80320114801F0AB
:103C800063F877E7680200208C03002040000020E2
:103C9000300500205C000020AC0000200000000087
:103CA00080844E4074D40C000000002000180240B4
:103CB0007266335F25642073656E64206F6B202508
:103CC000640D0A00050C0020700000200077000839
:103CD00000000000000024400000000000C065C09B
:103CE0000000000000001040507700087266335F4B
:103CF000256420726576202564206176673D256401
:103D0000207365713D256420636F756E743D256475
:103D10000D0A00007266335F2564207265762025E7
:103D200064207365713D2564206372635F65727200
:103D30006F720D0A00000000107A0008607B000816
:103D400072663320726576207465737472662073B0
:103D500065713D256420736C6F743D256420746922
:103D6000636B3D256420727373693D25640D0A0001
:103D7000044B4FF4006108B1012200E00022184614
:103D8000FDF748BB001C0240044B4FF4007108B122
:103D9000012200E000221846FDF73CBB001C024057
:103DA00070B50C4905460A4808600C490A48086085
:103DB0000B490860407820F0F804012000F010FA68
:103DC000284600F089FA2046BDE8704000F008BAA5
:103DD0008C03002040000020300500205C00002003
:103DE000AC0000202DE9F04100F008F91D4C1C4802
:103DF0001E4D20601E4E1C4828603060012000F0DF
:103E000057FB00F0EDF800F037FB1A4820601A4825
:103E100028603060012000F04BFB00F0E1F8174F04
:103E2000DFF85C80D7F80A00C0F3064158F821009B
:103E3000FFF7CCFC00F020FB1248206012482860FD
:103E40003060012000F034FB00F0CAF87889C0F33C
:103E5000062158F82100BDE8F041FFF7A1BF00009E
:103E60004403002040000020500400205C0000209B
:103E7000AC00002068030020C0040020CB16002006
:103E80005C7500088C03002030050020044B08B14D
:103E9000012200E0002210211846FDF7BBBA000005
:103EA0000000024038B50C4602210091134601463D
:103EB00022460248FDF7E6FE38BD0000C00500209E
:103EC000044B4FF4006108B1012200E000221846C3
:103ED000FDF7A0BA0010024038B50C46022100914F
:103EE0001346014622460248FDF7CCFE38BD0000CD
:103EF00018060020044B08B1012200E000224021F6
:103F00001846FDF787BA00000014024038B50C4689
:103F1000022100911346014622460248FDF7B2FEF7
:103F200038BD00007006002038B50B4600920446EC
:103F30000022802100F008F8002804D0606D40F0D5
:103F400020006065032038BD2DE9F0411D4617466D
:103F50000E460446DDF8188035E0681C33D02DB1DC
:103F6000FDF75EFAA0EB0800A8422CD32068416858
:103F700021F0E00141606068B0F5827F0BD1A0685C
:103F8000B0F5004F02D0B0F5806F04D12068016811
:103F900021F040010160A06AB0F5005F0AD12068FD
:103FA00001684DF6FF72114001602068016841F41C
:103FB00000510160012084F85100002084F8500075
:103FC0000320BDE8F0812068806836EA000004D054
:103FD0000020B842C1D10020F3E70120F9E7704783
:103FE00010B500F0B3FA04490120087000F0BEFAE1
:103FF000BDE8104000F004B84C00002002F00EBAFA
:1040000070B5404D00262E7000F082F8E9686F22EE
:104010000120491C00F072FAE96820206F22087321
:104020000C20C8720120491C00F004FB05F120049B
:10403000206800F051F9A07900F0D8F9E07900F09B
:104040006FF8207A00F01CF9607900F0B7F9607A17
:1040500000F080F840F2FF3000F0F2F9207E00F02E
:1040600029F9002000F08EF827492068884207D9F6
:10407000002000F0CDF8002000F0E0F80E2006E06F
:10408000802000F0C5F8012000F0D8F8142020713D
:1040900000F046F9012000F0A3F8E07A01281DD0D5
:1040A000E8689721417480F82460E86890F824104B
:1040B000242000F0A3FAE868417C112000F09EFA69
:1040C000E868314686730E2000F098FAE868817B34
:1040D0004173BDE870400D2000F090BAE968B72048
:1040E0004874207B81F824001C201C3100F0EAF980
:1040F000E8680649007F00F03F0051F8200000F01A
:10410000EBF8D2E750000020008F4233F077000830
:104110000248C1684220413100F0D4B9500000206B
:1041200070B50A4D04461D2029681D3100F0CAF9FA
:104130002A68507F00F0F10040EA4400C1B2517794
:104140001D2000F05BFA0248C47170BD5C000020C5
:104150007000002070B5094D04461D2029681D31EE
:1041600000F0B0F92A68507F00F0FE01214351773A
:104170001D2000F043FA0248447270BD5C0000202C
:104180007000002070B50A4C0546262021682631B3
:1041900000F098F9226812F8260F00F0F70040EAC4
:1041A000C500C1B21170BDE87040262000F026BAEB
:1041B0005C00002070B5094D04463120296830317B
:1041C00000F080F92A6812F8300F00F0F80121435E
:1041D0001170BDE87040312000F010BA5C00002082
:1041E00070B504460020032C00D10120074DA870B3
:1041F00000F048FAE868417801F0F8012143417085
:10420000BDE87040012000F0F9B900005000002026
:1042100070B5094D044609202968093100F052F9AA
:104220002A68507A00F07F0121435172BDE8704046
:10423000092000F0E3B900005C00002070B50F4CCD
:1042400005464D2021684C3100F03CF921680920D9
:10425000093100F037F92168487A00060BD5012DA5
:1042600002D1872081F84C0091F84C10BDE87040D5
:104270004D2000F0C3B98420F4E700005C0000206A
:1042800070B50A4D04461E2029681E3100F01AF947
:104290002A68907F00F0FB0040EA8400C1B2917769
:1042A0001E2000F0ABF90248047270BD5C000020D3
:1042B00070000020064910B50968044681F8220004
:1042C0000146222000F09AF90248047610BD000051
:1042D0005C000020700000200D4910B50860FCF75C
:1042E00053F99FED0C1B53EC112BFCF7CDF8FCF7A9
:1042F00077F90A49020C096801F8062F020A4A7088
:1043000088700322BDE81040062000F093B9000039
:10431000700000200000000080844E405C000020FF
:1043200070B5244D044609202968093100F0CAF807
:1043300029684D204C3100F0C5F82868417A0A06FA
:1043400028D590F84C3087229A4303D0022C0EDAFD
:1043500002240FE0052C01DA052402E0142C00DD14
:10436000142401F0F00141F07001621F07E0112CEC
:1043700000DD112401F0F00141F07001A21E02F0F5
:104380000F0211434172C9B2092000F037F90A48FF
:10439000047170BD4FF0FF32944201DA144602E01E
:1043A0000E2C00DD0E2401F0F00141F07001621CC2
:1043B000E5E700005C0000207000002070B5094DAA
:1043C00004461D2029681D3100F07CF82A68507FC2
:1043D00064F31F10C1B251771D2000F00FF902489D
:1043E000447170BD5C0000207000002070B5044670
:1043F0000C2801D90C2408E0062C02D24FF0060448
:1044000000E002D14FF0050001E04FF00300FFF79C
:10441000D1FE094D1E2029681E3100F053F828688E
:10442000817F64F31F11C9B281771E2000F0E6F886
:104430000248847170BD00005C0000207000002004
:1044400070B50C4D0446022229681E201E3100F072
:1044500055F82968032202EA142211F81E0F00F011
:10446000FC00104308704C70BDE8704002221E2012
:1044700000F0E0B85C00002010B50120FFF7B0FEAE
:104480000A4C00200222E16801F83F0F48704020EA
:1044900000F0D0F8E068C17B41730D2000F0AEF869
:1044A0000520FFF79DFE002010BD000050000020F9
:1044B000034901280968896800D0002008470000E6
:1044C000400000207CB50C4C8DF80000FF208DF8DA
:1044D000010020680D4642680020904720680222B3
:1044E00001A9036868469847206841680120884709
:1044F0009DF8050028707CBD40000020F8B50E4CEA
:1045000000F07F008DF8000020680E4615464168D7
:1045100000208847206801220849036868469847B8
:1045200020682A4631460368044898472068416855
:1045300001208847F8BD000040000020B0030020A3
:104540000A4601460020FFF7D9BF000070B50120E0
:1045500000F048F8044D2C46641EFDD2002000F007
:1045600041F86D1EFDD270BD80841E001B4910B540
:104570004A78824231D00870194C01284FF000006F
:1045800014D0FFF72DFE2068417801F07F014170C3
:10459000012000F033F80120FFF722FE21686F228E
:1045A0000120BDE81040491CFFF7A8BFFFF718FE27
:1045B0002068417841F080014170012000F01EF830
:1045C0000120FFF70DFE21680020022201F83F0FB5
:1045D0004870402000F02EF8E0E710BD4C000020AD
:1045E0005C000020044901280968096901D0012004
:1045F00008470020FCE700004000002038B540F0EC
:1046000080000A4C8DF800008DF801102068416888
:1046100000208847206802220549036868469847B9
:10462000206841680120884738BD00004000002014
:10463000B0030020F8B50E4C40F080008DF800006B
:1046400020680E46154641680020884720680122F0
:104650000849036868469847206806492A4603685F
:10466000491C304698472068416801208847F8BDBA
:1046700040000020B00300200A4601460020FFF75A
:10468000D9BF000003490968496908B1002000E06A
:104690000120084740000020FDF734BC30B5264813
:1046A00093B00025016841F080510160006800F07E
:1046B000805011902148016841F440410160006838
:1046C000022400F440401190012000904FF4A020FB
:1046D00001906005CDE906401A2008904FF4A870BB
:1046E000CDE9090404200B906846FDF7AFF800B14E
:1046F000FEE70CA90F2081E831004FF4A0500F9085
:104700004FF48050109005210CA8FCF755FF00B124
:10471000FEE7FDF72BF84FF47A71B0FBF1F0FDF7EF
:10472000DDFB0420FDF793FB00221146501EFCF731
:1047300011FF13B030BD000040380240007000404F
:104740001048016841F4700101600F48016841F0B0
:10475000010101600C4A00210832116002680B4B14
:104760001A400260031D0A4A1A60026822F480227D
:10477000026005480C300160024958068039086023
:104780007047000088ED00E000380240FFFFF6FEB1
:10479000103000240148FDF7E4BB0000C8090020E8
:1047A000F0B50268234D244E244FDFF894C0254B0A
:1047B0004FF0804EA84209D0704507D0B04205D0D6
:1047C000B84203D0604501D0984203D122F0700472
:1047D0004A682243A8421BD0704519D0B04217D076
:1047E000B84215D0604513D0984211D0164CA04263
:1047F0000ED0164CA0420BD0154CA04208D0154C40
:10480000A04205D0144CA04202D0144CA04203D1C7
:1048100022F44074CA68224302608A68C2620A684D
:104820008262A84201D0984201D109690163012145
:104830004161F0BD0000014000040040000800405C
:10484000000C0040000401400040014000440140D1
:104850000048014000180040001C004000200040BB
:1048600010B5806B0021C185C184FDF73AFC10BDF5
:1048700070B5846B2068406994F83910C0F3C0109B
:104880000025212904D118B1E584204600F062F802
:104890002068406994F83A10C0F38010222904D1AE
:1048A00018B1E585204600F047F8E06B40F01000B5
:1048B000E0632046FDF715FC70BD10B50146806B26
:1048C00009680968C90513D40021C1850168CA684F
:1048D00022F48072CA6001684A6922F001024A61CA
:1048E00001684A6922F040024A61202180F83A10AA
:1048F000FDF754FE10BD10B5806BFDF750FE10BDE6
:1049000010B50146806B09680968C9050CD40021FF
:10491000C18401684A6922F080024A610068C16866
:1049200041F04001C16010BDFDF77AFE10BD10B529
:10493000806BFDF776FE10BD0168CA6822F49072A4
:10494000CA6001684A6922F001024A61202180F8A8
:104950003A1070470168CA6822F0C002CA6020217C
:1049600080F83910704710B590F83A10222901D01C
:10497000022010BD8168B1F5805F11D00169002966
:1049800001681FD0496801F07F03816A4A1C826276
:104990000B70C18D491E0904090CC18518D026E091
:1049A0000269816A002A0268526805D0D2B20A8080
:1049B000816A491C8162ECE7C2F308020A80816ABD
:1049C000891CF7E74A68816A4B1C83620A70E0E73A
:1049D0000168CA6822F49072CA6001684A6922F0CC
:1049E00001024A61202180F83A10FDF7D7FD00202E
:1049F00010BD00002DE9F04104460068016921F472
:104A00004052E168114301612068C16849F20C62BB
:104A100091432369A268E5691A4363692B431A43EA
:104A20000A43C26020684169A26921F440710A43C7
:104A30004261E0696425B0F5004F974A97492068C4
:104A40004FF032083FD0884201D090427CD1FCF731
:104A5000ABFE00EBC00101EB001061688900B0FB08
:104A6000F1F6FCF7A1FE00EBC00101EB001061685C
:104A70008900B0FBF1F0B0FBF5F06FF0180148438E
:104A800006EB800108EB0110B0FBF5F000F0F0063A
:104A9000FCF78AFE00EBC00101EB001061688900A1
:104AA000B0FBF1F0B0FBF5F006EB0016FCF77CFE76
:104AB00000EBC00101EB001061688900B0FBF1F769
:104AC000FCF772FED2E0884201D090423DD1FCF763
:104AD0006BFE00EBC00101EB001061684900B0FB08
:104AE000F1F0B0FBF5F00601FCF75EFE00EBC00153
:104AF00001EB001061684900B0FBF1F7FCF754FED0
:104B000000EBC00101EB001061684900B0FBF1F05F
:104B1000B0FBF5F06FF01801484307EB800108EB9C
:104B2000C100B0FBF5F000F0F80006EB4006FCF722
:104B30003BFE00EBC00101EB001061684900B0FBD7
:104B4000F1F7FCF731FE3CE055E0FCF715FE00EB19
:104B5000C00101EB001061684900B0FBF1F0B0FB4F
:104B6000F5F00601FCF708FE00EBC00101EB0010B8
:104B700061684900B0FBF1F7FCF7FEFD00EBC001F6
:104B800001EB001061684900B0FBF1F0B0FBF5F0FB
:104B90006FF01801484307EB800108EBC100B0FB40
:104BA000F5F000F0F80006EB4006FCF7E5FD00EB41
:104BB000C00101EB001061684900B0FBF1F7FCF7A0
:104BC000DBFD00EBC00101EB001061684900B0FBA8
:104BD000F1F0B0FBF5F06FF01801484307EB8001EE
:104BE00008EBC100B0FBF5F000F00700216830448D
:104BF0008860BDE8F081FCF7BFFD00EBC00101EB70
:104C0000001061688900B0FBF1F6FCF7B5FD00EB20
:104C1000C00101EB001061688900B0FBF1F0B0FB4E
:104C2000F5F06FF01801484306EB800108EB011026
:104C3000B0FBF5F000F0F006FCF79EFD00EBC001C4
:104C400001EB001061688900B0FBF1F0B0FBF5F0FA
:104C500006EB0016FCF790FD00EBC00101EB001025
:104C600061688900B0FBF1F7FCF786FD00EBC0013D
:104C700001EB001061688900B0FBF1F0B0FBF5F0CA
:104C80006FF01801484307EB800108EB0110B0FBFF
:104C9000F5F000F00F00A9E70014014000100140FA
:104CA00090F83910212901D0022070478168B1F5B0
:104CB000805F016A0BD04A1C026202680978516069
:104CC000C18C491E0904090CC1840ED017E0098863
:104CD0000268C1F30801516001690029016A02D02C
:104CE000491C0162ECE7891CFBE70168CA6822F0F5
:104CF0008002CA600068C16841F04001C1600020C4
:104D0000704700000148FDF7EDB90000C80600201B
:104D10000148FDF7E7B900000807002010B5084C6E
:104D200020680068C00601D502F03CFB0448FDF78E
:104D3000D9F920680168090700D5406810BD000056
:104D400048070020FEE7FEE70FB4084B10B504A9A2
:104D500002AA039800F032FF044602A9002001F0E5
:104D60005EF9204610BC5DF814FB00001F600008CF
:104D700003B401984100009850EAC12018BF0420F4
:104D80004A0D18BF40F0010040F2FF72B2EB515FD4
:104D900008BF40F00200012808BF052002B070479C
:104DA0002DE9F04D2DED040B2DED0E8B96B0DDE9C8
:104DB0002550279CDDF890A025F0004624F00048FF
:104DC000BAF1000F14BF0121002101EB4502FC499B
:104DD00053184A1093422AD3002814BF01230023FA
:104DE00003EB44030B44F7498B4220D358EA0001FC
:104DF0009FEDF59B76D0DFF8D8B35D4503D1BAF1CE
:104E0000000F05D188E0BAF1000F08BF002100D0E3
:104E1000012101EB450111F5001F08D8002814BF3E
:104E20000121002101EB440111F5001F0BD99DED7B
:104E3000261B9DED240B16B0BDEC0E8B04B0BDE817
:104E4000F04D00F069BE0027002DBCBFE149884548
:104E500021DAE1498845A8BF02271CDAC3451ADCDC
:104E6000DE4901EB2851142908DDC1F1340220FA92
:104E700002F101FA02F282420DD108E058B9C1F103
:104E8000140228FA02F101FA02F2424503D101F0BC
:104E90000101C1F1020756EA0A0124D1002C22DAED
:104EA000002D18BF022F01D0012F0AD0022000F0E0
:104EB0007FFE16B0BDEC0E8B04B0BDE8F04D00F0E7
:104EC00013BE022000F074FE00F00EFE51EC100B39
:104ED00081F0004141EC100B16B0BDEC0E8B04B01C
:104EE000BDE8F08D18E09FEDBEAB9FEDBF8B0028B5
:104EF00071D1B848804522D105F1804010F580106D
:104F000008BFBAF1000F07D0B3450ADC002CA8BFD8
:104F10009DED260BE0DA0DE0B0EE490AF0EE690AED
:104F2000DAE7002C06DA9DED260B51EC100B81F030
:104F300000416FE0AE48784490ED000BCCE7D845D7
:104F40004DD1002C48DA2EB186423AD1BAF1000F89
:104F500042D126E0BAF1000F13D0022000F028FE63
:104F600000F0F6FD8DED020B9DED240B8DED000B99
:104F700010EE900A039961F31E0003909DED020B61
:104F8000AAE78DED02AB9DED240B1AEE901A10EE00
:104F9000900A8DED000B61F31E0003909DED020B56
:104FA0009AE78DED028B9DED240B18EE901A10EE12
:104FB000900A8DED000B61F31E0003909DED020B36
:104FC0008AE709DA9DED240B51EC190B53EC102BF9
:104FD000FBF75AFA1EE020E09DED240B7CE78642A9
:104FE0001BDAB4F1804F0DD0A4F10050B0F1FF50A6
:104FF00013D1002D11DB9DED240B51EC100B01F0B2
:1050000007FF07E09DED240B53EC102B51EC100B28
:1050100000F0C2BC41EC100B5EE79DED240B51EC9F
:10502000100B01F02DF9BAF1000FCDE90E0142D1BC
:105030009FED710B46B3A6F1E040B0F17F600CD05C
:105040005E4538D1002D00DAA7B3022F0CBF012036
:105050004FF0FF30FBF787FADCE7002D01DD002C75
:105060000DDA002D01DD002C1FDB002D16DA002CDF
:1050700014DB012F08BF9FED620B3FF42DAFB0EEA4
:105080004A0AF0EE6A0A27E7022F18BF002D0CD05B
:10509000012F0AD1002DFFF61FAF06E0002DB8BF8B
:1050A000002C08DA012F3FF417AFB0EE480AF0EEFB
:1050B000680A11E71BE0012000EBE57050EA0701E8
:1050C00015D0791EB0EE498AF0EE698A084308BF10
:1050D0009FED4D8B4E480025804570DD4D494E4873
:1050E000884514DDB0420DDB002C19DB2FE00120D8
:1050F00000F05EFD16B0BDEC0E8B04B0BDE8F04DC7
:1051000000F016BDB34502DC002C09DC1FE086422E
:1051100002DA002C1BDA03E05E452BDD002C16DDE5
:10512000022000F045FD00F013FD8DED020B53EC65
:105130001A2B51EC180BFBF735F9CDE90001039957
:10514000019861F31E0003909DED020BC4E602205E
:1051500000F02EFD00F00CFD10EE901A18EE900AF3
:105160008DED020B8DED008B61F31E0003909DED24
:10517000020BB1E69DED0E0B53EC192B51EC100B0D
:10518000FBF70AF99FED260BCDE9080153EC102B34
:105190009DED080B51EC100BFBF704F99FED221B62
:1051A00053EC112BFBF7FBF89DED081B53EC112B77
:1051B000FBF7F8F89FED1E1B53EC112B3CE08CE045
:1051C000FFFF1F00FFFF0F00000000000000F03F86
:1051D0000000F03F0000F07F0000404301FCFFFFB3
:1051E000000000000000F07F000000000000000050
:1051F0002E2A0000000000000000000000000080D7
:10520000000000000000F0FF000000000000F0BF00
:105210000000E0410000F043FFFFEF3F000000000E
:10522000000000000000D03F555555555555D53F5D
:10523000000000000000E03FFBF7B1F89DED080B17
:1052400041EC1A0B53EC102B51EC100BFBF7AAF8A6
:1052500053EC1A2BFBF7A6F841EC1A0B9FEDFE0B53
:1052600053EC102B9DED080B51EC100BFBF79AF84B
:1052700041EC1B0B9FEDFA0B51EC1A0B53EC102B6E
:10528000FBF790F841EC1A0B9FEDF70B53EC102B4A
:105290009DED080B51EC100BFBF784F853EC1A2B27
:1052A000FBF77AF841EC1A0B51EC1B0B53EC1A2B61
:1052B000FAF7D1FF0690CDE906519DED060B53ECB0
:1052C0001B2B51EC100BFBF767F853EC1A2BFBF779
:1052D00066F841EC100B00F0A1B90020B6F5801F74
:1052E0000EDA9FEDE30B53EC102B9DED0E0B51EC02
:1052F000100BFBF757F8CDE90E016FF034000E46A6
:1053000000EB2650A0F2FF37C6F31300DA4940F055
:105310007F6646F040568842D8BF002408DDD74952
:105320008142C8BF012403DC0024A6F580167F1C3F
:10533000D348784400EBC4000F9690ED00CB9DED70
:105340000E0B53EC1C2B51EC100BFBF725F89DEDCD
:105350000E0B41EC1B0B53EC1C2B51EC100BFAF712
:105360007AFF41EC100B51EC190B53EC102BFBF7AF
:105370008BF841EC1D0B51EC1B0B53EC1D2BFBF779
:1053800011F841EC1A0BBF488DED10AB7844109525
:1053900090ED000B4FF0005040EA660000EB8440B7
:1053A0008DED080B00F5002009909DED080B53ECE6
:1053B0001C2B51EC100BFAF7EFFF9DED0E1B53EC7D
:1053C000112BFAF7ECFF41EC100B53EC102B9DED79
:1053D000100B51EC100BFAF7E5FF9DED080B41ECBB
:1053E0001C0B53EC102B9DED100B51EC100BFAF72E
:1053F000D9FF53EC1B2BFAF7D2FF53EC1C2BFAF717
:10540000CBFF53EC1D2BFAF7CDFF41EC1C0B53ECFB
:105410001A2B51EC1A0BFAF7C5FF41EC1B0B9A48FB
:105420000621B0EE4B0AF0EE6B0A784400F0E0FA89
:10543000B0EE401AF0EE601AB0EE41DAF0EE61DA4A
:1054400053EC1B2B51EC1B0BFAF7ACFF53EC1D2B51
:10545000FAF7A8FF9DED100B41EC1B0B53EC1A2B38
:1054600051EC100BFAF7F7FE53EC1C2BFAF79AFFEE
:1054700053EC1B2BFAF7EFFE9DED100B41EC1B0BD1
:1054800053EC102B51EC100BFAF78CFF41EC1D0B79
:105490009FED7FEB53EC1E2BFAF7DDFE53EC1B2B3D
:1054A000FAF7D9FE0890CDE908519DED080B53ECB1
:1054B0001E2B51EC100BFAF76FFF53EC1D2BFAF774
:1054C0006BFF53EC1B2BFAF76AFF9DED080B41ECC9
:1054D0001D0B53EC102B9DED100B51EC100BFAF73C
:1054E00061FF41EC1B0B53EC1A2B51EC1D0BFAF72F
:1054F00059FF9DED080B41EC1A0B53EC102B51ECAE
:105500001C0BFAF74FFF53EC1A2BFAF7A4FE41ECF1
:105510001A0B51EC1B0B53EC1A2BFAF79CFE0C9058
:10552000CDE90C519DED0C0B53EC1B2B51EC100BEA
:10553000FAF732FF53EC1A2BFAF731FF41EC1B0B51
:105540009FED550B53EC102B9DED0C0B51EC100BFC
:10555000FAF728FF41EC1A0B9FED510B51EC1B0B96
:1055600053EC102BFAF71EFF41EC1B0B9FED4E0B7B
:1055700053EC102B9DED0C0B51EC100BFAF712FFB6
:1055800053EC1B2BFAF767FE41EC100B48487844AC
:1055900000EBC40090ED001B51EC100B53EC112BF1
:1055A000FAF759FE41EC1B0B3846FAF7DCFFCDE960
:1055B000080153EC1B2B51EC1A0BFAF74CFE41EC93
:1055C000100B3C48784400EBC40090ED00CB51EC4C
:1055D000100B53EC1C2BFAF73EFE9DED081B53EC11
:1055E000112BFAF738FE0690CDE906519DED080B18
:1055F00053EC102B9DED060B51EC100BFAF7CCFE83
:1056000053EC1C2BFAF7C8FE53EC1A2BFAF7C4FE26
:1056100053EC1B2BFAF7C3FE41EC100B9DED261B40
:1056200053EC102B8DED001B00959DED260B51ECDE
:10563000100BFAF7B7FE9DED000B41EC1A0B53EC83
:10564000102B9DED260B51EC100BFAF7A5FE9DEDEE
:10565000061B53EC112B2FE0000000604715F73FAD
:10566000FE822B654715F73F44DF5DF80BAE543ED5
:1056700000000000000040438E9803007AB60B0043
:10568000AA250000D8250000E22400000000000048
:105690000000000000000840000000E009C7EE3FE5
:1056A000FD033ADC09C7EE3FF5015B14E02F3EBE77
:1056B0006E23000028230000FAF774FE53EC1A2B27
:1056C000FAF7C9FD9DED060B41EC1A0B53EC102BBC
:1056D0009DED000B51EC100BFAF764FECDE90C01C7
:1056E0009DED0C0B51EC1A0B53EC102BFAF7B3FD9C
:1056F000CDE902010C46AA498C422FDB611A08430E
:1057000018D19DED0C0B53EC102B9DED020B51ECC1
:10571000100BFAF741FE41EC1B0B9FEDA30B51EC74
:105720001A0B53EC102BFAF796FD53EC1B2BFBF7DF
:1057300047F82DD2022000F03BFA00F009FA10EEF3
:10574000901A18EE900A8DED020B8DED008B61F32F
:105750001E0003909DED020BFFF7BEBB944A24F0A0
:105760000041914214D39349214408437FF4EFACA4
:105770009DED0C0B53EC102B9DED020B51EC100B1F
:10578000FAF70AFE53EC1A2BFBF71AF87FF6DFAC98
:1057900024F000408849894A002601EB20518242CA
:1057A0002BDA481C4FF4801121FA00F02044844A7F
:1057B000C0F30A517A44A1F2FF3192ED000B814A05
:1057C0008DED080BCA4020EA0202C0F3130040F43A
:1057D0008010C1F1140120FA01F60992002CB8BF23
:1057E00076429DED080B53EC102B9DED0C0B51EC0C
:1057F000100BFAF7D1FDCDE90C019DED0C0B51EC2E
:105800001A0B53EC102BFAF726FD9FED6F0B089047
:10581000CDE9085153EC102B9DED080B51EC100B0A
:10582000FAF7C0FD41EC1B0B9FED690B53EC102BFD
:105830009DED080B51EC100BFAF7B4FD9DED0C0B30
:1058400041EC1C0B53EC102B9DED080B51EC100B95
:10585000FAF7A2FD53EC1A2BFAF7A1FD9FED5E1BA0
:1058600053EC112BFAF79EFD53EC1C2BFAF7F3FCCB
:1058700041EC1A0B51EC1B0B53EC1A2BFAF7EBFC17
:10588000CDE902019DED020B53EC1B2B51EC100BEB
:10589000FAF782FD53EC1A2BFAF781FD9DED020B0E
:1058A00041EC1A0B53EC102B51EC100BFAF77AFD6C
:1058B000CDE908014A489DED080B0521784400F028
:1058C00097F89DED081B51EC100B53EC112BFAF7D8
:1058D00069FD9DED021B53EC112BFAF760FDCDE93C
:1058E00006019DED020B53EC1A2B51EC100BFAF74D
:1058F00059FD53EC1A2BFAF7AEFC9FED3B0B41EC34
:105900001A0B53EC102B9DED060B51EC100BFAF714
:1059100043FD9DED060B41EC1B0B53EC102B9DED55
:10592000020B51EC100BFAF73DFD53EC1B2BFAF771
:10593000ABFD53EC1A2BFAF72FFD9DED021B53EC38
:10594000112BFAF729FD53EC192BFAF728FDCDE9B5
:10595000020101EB065001150029C8BF039015DCB8
:105960009DED020B324651EC100BFAF711FFFFF7D9
:10597000FFF9042808BF00F0FBF832469DED020B4A
:1059800051EC100BFAF704FFCDE902019DED020B7B
:1059900051EC180B53EC102BFAF704FDFFF73ABB50
:1059A0000000904000000000FE822B654715973CE8
:1059B00000CC904000346F3F01FCFFFF0000E03F4F
:1059C000B0210000FFFF0F0000000000432EE63F63
:1059D000396CA80C615C20BEEF39FAFE422EE63F1E
:1059E00080200000000000000000000000000040D7
:1059F00070B504462DED028B4D1E00EBC500B0EED8
:105A0000408AF0EE608A90ED000B35F0060017D06A
:105A100053EC182B51EC100BFAF7C4FC41EC100BB3
:105A20006D1E04EBC50090ED001B51EC100B53EC08
:105A3000112BFAF710FC41EC100B35F00600E7D102
:105A4000022D36D0042D1CD0062D1CBFBDEC028BC0
:105A500070BD53EC182B51EC100BFAF7A3FC94ED2E
:105A60000A1B53EC112BFAF7F6FB53EC182BFAF741
:105A700099FC94ED081B53EC112BFAF7ECFB41EC6D
:105A8000100B53EC182B51EC100BFAF78BFC94ED28
:105A9000061B53EC112BFAF7DEFB53EC182BFAF72D
:105AA00081FC94ED040B53EC102BFAF7D4FB41EC82
:105AB000100B53EC182B51EC100BFAF773FC94ED10
:105AC000021B53EC112BFAF7C6FB53EC182BFAF719
:105AD00069FC94ED001B53EC112BFAF7BCFBBDECF9
